:02000000522983
:10000800FF00030E8301AC000A08AD008A017008E6
:10001800A7007108A6007208A5007408A400780853
:10002800A3007B08A2007C08A1007D08A0008B1C0F
:10003800A82887010230FB000430FC00BA30FD001C
:10004800FD0B2428FC0B2428FB0B24280000861811
:10005800A528081C61280815081688118812081098
:1000680088100330A8002808003C03185E280A30CE
:10007800F4002808F000BF207808F0007008F100AC
:10008800F10D7110F10D7110F10D7110F10D71106C
:10009800710887000B30FB002630FC005D30FD0046
:1000A800FD0B5428FC0B5428FB0B542800000000BF
:1000B800A8033728881508129428881D94288816BC
:1000C800881408108811081208110330A80028089D
:1000D800003C031892280A30F4002808F000BF20DA
:1000E8007808F0007008F100F10D7110F10D711031
:1000F800F10D7110F10D7110710887000B30FB00C4
:100108002630FC005D30FD00FD0B8828FC0B88289C
:10011800FB0B882800000000A8036B28081488102F
:1001280087010230FB000430FC00BA30FD00FD0BF3
:100138009B28FC0B9B28FB0B9B2800008618A528F6
:10014800A228061CA8288B102708F0002608F10012
:100158002508F2002408F4002308F8002208FB0010
:100168002108FC002008FD002D088A002C0E8300C1
:06017800FF0E7F0E0900DE
:10017E0083120313F8010830FC00700DF80D74089B
:10018E00F8020318CC28F8070310F00DFC0BC42856
:02019E00080057
:0E01A000831203132A088A002908820008002F
:1001AE00831203132E08AB002B08033C03180929F6
:1001BE000A30F4002B08F000BF20700887000A30C8
:1001CE00F4002B08F000BF207808F0007008F10052
:1001DE00F10D7110F10D7110F10D7110F10D711015
:1001EE00710887040B30FB002630FC005D30FD00EB
:1001FE00FD0BFF28FC0BFF28FB0BFF280000000067
:10020E00AB03DB282E08033A031D45292E08AB004D
:10021E002B08003C031836290A30F4002B08F00096
:10022E00BF207808F0007008F100F10D7110F10D8B
:10023E007110F10D7110F10D7110710887000B30F6
:10024E00FB002630FC005D30FD00FD0B2C29FC0B65
:10025E002C29FB0B2C2900000000AB030F29870172
:10026E000B30FB002630FC005D30FD00FD0B3D2900
:0E027E00FC0B3D29FB0B3D2900000000080091
:10028C00D0208A110A128000840AA90A0319AA0A2A
:08029C00F003031D46290800D0
:1002A40083160313861406140B168B17011381137C
:1002B400061286120613861383120616861606176E
:1002C4008617831687018312870183168801831298
:1002D40088010B30FB002630FC005D30FD00FD0B77
:1002E4007129FC0B7129FB0B712900000000881691
:1002F400081408128811081188100F30AE00D72096
:100304000816081488108812881108110330AE00EA
:10031400D72088150815881008100812881217307D
:10032400AE00D72088140812881208110810881506
:0A0334000330AE00D72079299E297E
:02400E004A2F37
:00000001FF
