:0200000056297F
:10000800FF00030E8301AC000A08AD008A017008E6
:10001800A7007108A6007208A5007408A400780853
:10002800A3007B08A2007C08A1007D08A0008B1C0F
:10003800AC2887010230FB000430FC00BA30FD0018
:10004800FD0B2428FC0B2428FB0B24280000861811
:10005800A928081C61280815081688118812081094
:1000680088100330A8002808003C03185E280A30CE
:10007800F4002808F000C3207808F0007008F100A8
:10008800F10D7110F10D7110F10D7110F10D71106C
:10009800710887000B30FB002630FC005D30FD0046
:1000A800FD0B5428FC0B5428FB0B542800000000BF
:1000B800A8033728881508129428881D94288816BC
:1000C800881408108811081208110330A80028089D
:1000D800003C031892280A30F4002808F000C320D6
:1000E8007808F0007008F100F10D7110F10D711031
:1000F800F10D7110F10D7110710887000B30FB00C4
:100108002630FC005D30FD00FD0B8828FC0B88289C
:10011800FB0B882800000000A8036B28081488102F
:1001280087010230FB000430FC00BA30FD00FD0BF3
:100138009B28FC0B9B28FB0B9B2800008618A928F2
:10014800061CA8288B10A928A228061CAC288B10EE
:100158002708F0002608F1002508F2002408F4001A
:100168002308F8002208FB002108FC002008FD00F5
:0E0178002D088A002C0E8300FF0E7F0E09005A
:1001860083120313F8010830FC00700DF80D740893
:10019600F8020318D028F8070310F00DFC0BC82846
:0201A60008004F
:0E01A800831203132A088A0029088200080027
:1001B600831203132E08AB002B08033C03180D29EA
:1001C6000A30F4002B08F000C320700887000A30BC
:1001D600F4002B08F000C3207808F0007008F10046
:1001E600F10D7110F10D7110F10D7110F10D71100D
:1001F600710887040B30FB002630FC005D30FD00E3
:10020600FD0B0329FC0B0329FB0B0329000000004F
:10021600AB03DF282E08033A031D49292E08AB003D
:100226002B08003C03183A290A30F4002B08F0008A
:10023600C3207808F0007008F100F10D7110F10D7F
:100246007110F10D7110F10D7110710887000B30EE
:10025600FB002630FC005D30FD00FD0B3029FC0B59
:100266003029FB0B302900000000AB03132987015E
:100276000B30FB002630FC005D30FD00FD0B4129F4
:0E028600FC0B4129FB0B412900000000080081
:10029400D4208A110A128000840AA90A0319AA0A1E
:0802A400F003031D4A290800C4
:1002AC0083160313861406140B168B170113811374
:1002BC000612861206138613831206168616061766
:1002CC008617831687018312870183168801831290
:1002DC0088010B30FB002630FC005D30FD00FD0B6F
:1002EC007529FC0B7529FB0B75290000000088167D
:1002FC00081408128811081188100F30AE00DB208A
:10030C000816081488108812881108110330AE00E2
:10031C00DB20881508158810081008128812173071
:10032C00AE00DB20881408128812081108108815FA
:0A033C000330AE00DB207D29A2296A
:02400E004A2F37
:00000001FF
