:020000008C2949
:10000800FF00030E8301AE000A08AF008A017008E2
:10001800A7007108A6007208A5007408A400780853
:10002800A3007B08A2007C08A1007D08A0008B1C0F
:10003800B62887010230FB000430FC00BA30FD000E
:10004800FD0B2428FC0B2428FB0B24280000861811
:100058002F28031430280310031CB328081C662813
:100068000815081688118812081088100330AB008C
:100078002B08003C031863280A30F4002B08F00012
:10008800CD207808F0007008F100F10D7110F10D25
:100098007110F10D7110F10D7110710887000B309E
:1000A800FB002630FC005D30FD00FD0B5928FC0BE1
:1000B8005928FB0B592800000000AB033C28881581
:1000C80008129928881D99288816881408108811FC
:1000D800081208110330AB002B08003C03189728BE
:1000E8000A30F4002B08F000CD207808F0007008E2
:1000F800F100F10D7110F10D7110F10D7110F10D8C
:100108007110710887000B30FB002630FC005D3051
:10011800FD00FD0B8D28FC0B8D28FB0B8D280000A6
:100128000000AB0370280814881087010230FB0018
:100138000430FC00BA30FD00FD0BA028FC0BA02801
:10014800FB0BA02800008618AB280314AC2803106A
:10015800031CB328061CB2288B10B328A728061C3A
:10016800B6288B102708F0002608F1002508F200B1
:100178002408F4002308F8002208FB002108FC00EA
:100188002008FD002F088A002E0E8300FF0E7F0E28
:0201980009005C
:10019A0083120313F8010830FC00700DF80D74087F
:1001AA00F8020318DA28F8070310F00DFC0BD2281E
:0201BA0008003B
:0E01BC008312031329088A0028088200080015
:1001CA00831203133008AA002A08033C03181C29C7
:1001DA000A30F4002A08F000CD207008B100310876
:1001EA00AC000A30F4002A08F000CD207808F000AC
:1001FA007008AD007008F100F10D7110F10D711069
:10020A00F10D7110F10D71107108310487000B3076
:10021A00FB002630FC005D30FD00FD0B1229FC0BB3
:10022A001229FB0B122900000000AA03E928300852
:10023A00033A031D58293008AA002A08003C03186B
:10024A0049290A30F4002A08F000CD207808F00085
:10025A007008F100F10D7110F10D7110F10D7110AE
:10026A00F10D7110710887000B30FB002630FC007D
:10027A005D30FD00FD0B3F29FC0B3F29FB0B3F299D
:10028A0000000000AA03222987010B30FB00263058
:10029A00FC005D30FD00FD0B5029FC0B5029FB0BC7
:0802AA005029000000000800CB
:1002B200DE208A110A128000840AA80A0319A90AF8
:0802C200F003031D5929080097
:1002CA00831203138816081408128811081188105B
:1002DA000F30B000E520081608148810881288111B
:1002EA0008110330B000E520881508158810081099
:1002FA00081288121730B000E520881408128812F4
:0E030A000811081088150330B000E520080027
:1003180083160313861406140B168B170113811307
:1003280006128612061386138312061686160617F9
:100338008617831687018312870183168801831223
:1003480088010B30FB002630FC005D30FD00FD0B02
:10035800AB29FC0BAB29FB0BAB2900000000652186
:04036800B329B529D7
:02400E004A2F37
:00000001FF
