:0200000088294D
:10000800FF00030E8301AC000A08AD008A017008E6
:10001800A7007108A6007208A5007408A400780853
:10002800A3007B08A2007C08A1007D08A0008B1C0F
:10003800B62887010230FB000430FC00BA30FD000E
:10004800FD0B2428FC0B2428FB0B24280000861811
:100058002F28031430280310031CB328081C662813
:100068000815081688118812081088100330A8008F
:100078002808003C031863280A30F4002808F00018
:10008800CD207808F0007008F100F10D7110F10D25
:100098007110F10D7110F10D7110710887000B309E
:1000A800FB002630FC005D30FD00FD0B5928FC0BE1
:1000B8005928FB0B592800000000A8033C28881584
:1000C80008129928881D99288816881408108811FC
:1000D800081208110330A8002808003C03189728C4
:1000E8000A30F4002808F000CD207808F0007008E5
:1000F800F100F10D7110F10D7110F10D7110F10D8C
:100108007110710887000B30FB002630FC005D3051
:10011800FD00FD0B8D28FC0B8D28FB0B8D280000A6
:100128000000A80370280814881087010230FB001B
:100138000430FC00BA30FD00FD0BA028FC0BA02801
:10014800FB0BA02800008618AB280314AC2803106A
:10015800031CB328061CB2288B10B328A728061C3A
:10016800B6288B102708F0002608F1002508F200B1
:100178002408F4002308F8002208FB002108FC00EA
:100188002008FD002D088A002C0E8300FF0E7F0E2C
:0201980009005C
:10019A0083120313F8010830FC00700DF80D74087F
:1001AA00F8020318DA28F8070310F00DFC0BD2281E
:0201BA0008003B
:0E01BC00831203132A088A0029088200080013
:1001CA00831203132E08AB002B08033C03181829CB
:1001DA000A30F4002B08F000CD207008AF000A3076
:1001EA00F4002B08F000CD207808F0007008F10028
:1001FA00F10D7110F10D7110F10D7110F10D7110F9
:10020A0071082F0487000B30FB002630FC005D309C
:10021A00FD00FD0B0E29FC0B0E29FB0B0E2900001D
:10022A000000AB03E9282E08033A031D54292E08BF
:10023A00AB002B08003C031845290A30F4002B08B0
:10024A00F000CD207808F0007008F100F10D71106F
:10025A00F10D7110F10D7110F10D71107108870017
:10026A000B30FB002630FC005D30FD00FD0B3B2906
:10027A00FC0B3B29FB0B3B2900000000AB031E29AA
:10028A0087010B30FB002630FC005D30FD00FD0BC2
:10029A004C29FC0B4C29FB0B4C29000000000800E0
:1002AA00DE208A110A128000840AA90A0319AA0AFE
:0802BA00F003031D55290800A3
:1002C2008312031388160814081288110811881063
:1002D2000F30AE00E5200816081488108812881125
:1002E20008110330AE00E5208815081588100810A3
:1002F200081288121730AE00E520881408128812FE
:0E0302000811081088150330AE00E520080031
:1003100083160313861406140B168B17011381130F
:100320000612861206138613831206168616061701
:10033000861783168701831287018316880183122B
:1003400088010B30FB002630FC005D30FD00FD0B0A
:10035000A729FC0BA729FB0BA7290000000061219E
:04036000AF29B129E7
:02400E004A2F37
:00000001FF
